:100000000C942A000C943C000C943C000C943C0092
:100010000C943C000C943C000C943C000C943C0070
:100020000C943C000C943C000C943C000C943C0060
:100030000C943C000C943C000C943C000C943C0050
:100040000C943C000C943C000C943C000C943C0040
:100050000C943C0011241FBECFE5D8E0DEBFCDBF1D
:1000600012E0A0E6B0E001C01D92AA36B107E1F7A8
:100070000E94EE040C948F050C940000DF93CF9344
:10008000CDB7DEB781E490E02FE0FC012083CF9173
:10009000DF910895DF93CF9300D0CDB7DEB79A8379
:1000A000898383E590E023E0FC0120831AC082E588
:1000B00090E023E8FC01208388E590E028E530E02B
:1000C000F90120812160FC012083A895000088E5CA
:1000D00090E0FC018081882F90E081709070009703
:1000E000B1F321E089819A81009709F420E08981A8
:1000F0009A8101979A8389832223C9F683E590E048
:10010000FC0110820F900F90CF91DF910895DF9343
:10011000CF93CDB7DEB786E590E024EAFC012083DB
:10012000000086E590E0FC0180818823D4F781E21D
:1001300090E0FC018081882F90E0887F907088306B
:10014000910519F40E94010106C081E290E0FC01D2
:1001500080810E945201CF91DF910895DF93CF9368
:10016000CDB7DEB786E590E024EAFC0120830000ED
:1001700086E590E0FC0180818823D4F781E290E05D
:10018000FC018081882F90E0887F907080319105FC
:1001900019F40E94010106C081E290E0FC01808117
:1001A0000E945201CF91DF910895DF93CF93CDB795
:1001B000DEB783E290E02AE7FC01208386E590E049
:1001C00024E8FC012083000086E590E0FC018081AA
:1001D0008823D4F781E290E0FC018081882F90E0B1
:1001E000887F90708831910519F40E94010106C042
:1001F00081E290E0FC0180810E945201CF91DF9169
:100200000895DF93CF93CDB7DEB788E390E028E37E
:1002100030E0F90120812160FC01208386E990E033
:100220000E944A0088E390E028E330E0F901208151
:100230002E7FFC01208386E990E00E944A0088E33B
:1002400090E028E330E0F90120812160FC01208367
:1002500086E990E00E944A0088E390E028E330E0DD
:10026000F90120812E7FFC01208386E990E00E9425
:100270004A0088E390E028E330E0F9012081216022
:10028000FC01208386E990E00E944A0088E390E028
:1002900028E330E0F90120812E7FFC012083CF91FB
:1002A000DF910895DF93CF9300D00F92CDB7DEB7E3
:1002B0008B8388E390E028E330E0F901208121601E
:1002C000FC0120838AEF90E00E944A0088E390E0DE
:1002D00028E330E0F90120812E7FFC0120838AEFA2
:1002E00090E00E944A0088E390E028E330E0F901C2
:1002F00020812160FC0120838AEF90E00E944A0067
:1003000088E390E028E330E0F90120812E7FFC01B2
:10031000208388EE93E00E944A0087E090E09A8371
:10032000898361C08B81882F90E0098002C09595F8
:1003300087950A94E2F7817090708823D9F088E35A
:1003400090E028E330E0F90120812160FC01208366
:1003500086E990E00E944A0088E390E028E330E0DC
:10036000F90120812E7FFC01208388EE93E00E941A
:100370004A0034C088E390E028E330E0F9012081AE
:100380002160FC01208386E990E00E944A0088E316
:1003900090E028E330E0F90120812E7FFC012083EA
:1003A00086E990E00E944A0088E390E028E330E08C
:1003B000F90120812160FC01208386E990E00E9400
:1003C0004A0088E390E028E330E0F90120812E7FA5
:1003D000FC01208388EE93E00E944A0089819A8183
:1003E00001979A83898389819A81833091050CF0E2
:1003F00099CF0F900F900F90CF91DF910895DF93D9
:10040000CF9300D000D0CDB7DEB70E9447051B8246
:100410001A8288E390E028E330E0F90120812D7F03
:10042000FC01208380E040E050E0BA010E94AF026E
:100430008C838A819B8101969B838A838A819B819D
:100440008132910528F08FEF0E94520181E080C037
:100450008C81813039F788E390E028E330E0F901BE
:1004600020812260FC0120838FEF0E9457058FEFCF
:100470000E9457051B821A8282E0898388E04AEA3B
:1004800051E060E070E00E94AF028C838A819B8122
:1004900001969B838A838A819B818F3F910530F0EF
:1004A00081E0898381E08093690203C08C8181307F
:1004B00029F71B821A8287E340E050E0BA010E94CC
:1004C000AF028C8389E240E050E060E070E40E947B
:1004D000AF028C838A819B8101969B838A838A8168
:1004E0009B818F3F910528F08FEF0E94520182E09F
:1004F0002FC08C818823F9F61B821A821092640225
:100500008981823011F58AE340E050E0BA010E940F
:10051000AF028C838A819B8101969B838A838A8127
:100520009B818F3F910518F01092690203C08C8166
:10053000882349F780916402813021F482E080931E
:10054000690203C083E0809369020E94010180E098
:100550000F900F900F900F90CF91DF910895DF9340
:10056000CF93CDB7DEB728970FB6F894DEBF0FBE96
:10057000CDBF8C834D835E836F8378871982809192
:100580006402882319F58C81813179F08C81823164
:1005900061F08C81883149F08C81893131F08C8116
:1005A000803219F08C81813289F48D819E81AF81F6
:1005B000B885072E79E0880F991FAA1FBB1F7A956F
:1005C000D1F7702D8D839E83AF83B88788E390E049
:1005D00028E330E0F90120812D7FFC0120838C810C
:1005E00080640E9457058D819E81AF81B8858B2FD5
:1005F0009927AA27BB270E9457058D819E81AF812D
:10060000B885CD01AA27BB270E9457058D819E8101
:10061000AF81B885892F9A2FAB2FBB270E94570532
:100620008D810E9457058C81883021F487E80E94D3
:1006300057050EC085E90E9457050AC081E09981DF
:100640009F3F09F080E099819F5F9983882339F467
:100650000E9474058A838A818F3F81F301C0000064
:100660008A818823B1F48C818A3399F40E947405BD
:1006700080748B838B81803421F481E080936402C9
:1006800002C0109264020E9474050E9474050E94C8
:1006900074050E94740588E390E028E330E0F901D6
:1006A00020812260FC0120838A8128960FB6F8946D
:1006B000DEBF0FBECDBFCF91DF910895DF93CF9303
:1006C000CDB7DEB729970FB6F894DEBF0FBECDBF0A
:1006D0006A837B838C839D832E833F8348875987DE
:1006E0002A813B814C815D8180E2BA01A9010E948F
:1006F000AF0289838981882311F089812AC02A81E8
:100700003B814C815D818E819F81A885B985820F57
:10071000931FA41FB51F9C01AD01215030404040E4
:10072000504081E2BA01A9010E94AF028983898108
:10073000882311F089810DC086E240E050E0BA01C3
:100740000E94AF0289838981882311F0898101C0C9
:1007500080E029960FB6F894DEBF0FBECDBFCF91D3
:10076000DF910895DF93CF93CDB7DEB729970FB60A
:10077000F894DEBF0FBECDBF6E837F8388879987D5
:100780001C821B822E813F814885598581E1BA01F7
:10079000A9010E94AF028D838D81882311F08D8184
:1007A00051C088E390E028E330E0F90120812D7FFB
:1007B000FC0120831C821B821AC021E08B819C815A
:1007C000FFEF8F3F9F0709F020E08B819C8101960E
:1007D0009C838B83222359F088E390E028E330E068
:1007E000F90120812260FC01208381E02BC00E945E
:1007F00074058E3F11F71A8219820EC00E9474058B
:10080000282F89819A818C599F4FFC0120838981EF
:100810009A8101969A83898389819A81F2E0803056
:100820009F0760F30E9474050E9474050E9474057E
:1008300088E390E028E330E0F90120812260FC01A8
:10084000208380E029960FB6F894DEBF0FBECDBF9F
:10085000CF91DF910895DF93CF93CDB7DEB729977E
:100860000FB6F894DEBF0FBECDBF6E837F8388873F
:1008700099871C821B822E813F814885598588E19A
:10088000BA01A9010E94AF028D838D81882311F0E6
:100890008D819BC088E390E028E330E0F90120815E
:1008A0002D7FFC0120838EEF0E9457051A8219824A
:1008B0000DC089819A818C599F4FFC0180810E94D3
:1008C000570589819A8101969A83898389819A81C2
:1008D000F2E080309F0768F38FEF0E9457058FEF9B
:1008E0000E9457050E9474058D838D81882F90E0AA
:1008F0008F7190708530910529F188E390E028E3AD
:1009000030E0F90120812260FC0120838D815DC0EF
:1009100021E08B819C81FFEF8F3F9F0709F020E052
:100920008B819C8101969C838B83222361F088E3D9
:1009300090E028E330E0F90120812260FC0120836F
:1009400081E043C000000E947405882309F388E316
:1009500090E028E330E0F90120812260FC0120834F
:100960008FEF0E94570588E390E028E330E0F9011B
:1009700020812D7FFC0120831AC021E08B819C8186
:10098000FFEF8F3F9F0709F020E08B819C8101964C
:100990009C838B83222359F088E390E028E330E0A6
:1009A000F90120812260FC01208381E00EC00E94B9
:1009B0007405882311F388E390E028E330E0F9011F
:1009C00020812260FC01208380E029960FB6F894F4
:1009D000DEBF0FBECDBFCF91DF910895DF93CF93E0
:1009E000CDB7DEB780E290E022E0FC01208387E310
:1009F00090E027E330E0F90120812160FC012083B1
:100A000088EE93E00E944A0088E390E028E330E01B
:100A1000F90120812160FC01208388EE93E00E948F
:100A20004A0088E390E028E330E0F90120812E7F3E
:100A3000FC01208380ED97E00E944A000E94FF01A4
:100A400001C0000086E390E0FC018081882F90E0E7
:100A5000847090700097A9F784EF91E00E944A009B
:100A600088E390E028E330E0F90120812160FC0177
:100A7000208384EF91E00E944A0088E390E028E31D
:100A800030E0F90120812E7FFC012083DBCFDF9352
:100A9000CF93CDB7DEB78DE290E022E5FC01208355
:100AA0008EE290E0FC011082CF91DF910895DF93F8
:100AB000CF9300D0CDB7DEB78A838FE290E02A8152
:100AC000FC01208300008EE290E0FC0180818823FD
:100AD000D4F78FE290E0FC01808189838A810F90B6
:100AE0000F90CF91DF910895DF93CF930F92CDB701
:100AF000DEB78FE290E02FEFFC01208300008EE252
:100B000090E0FC0180818823D4F78FE290E0FC0123
:100B10008081898389810F90CF91DF910895F89426
:020B2000FFCF05
:00000001FF
