:100000000C942A000C9434000C9434000C943400AA
:100010000C9434000C9434000C9434000C94340090
:100020000C9434000C9434000C9434000C94340080
:100030000C9434000C9434000C9434000C94340070
:100040000C9434000C9434000C9434000C94340060
:100050000C94340011241FBECFE5D8E0DEBFCDBF25
:100060000E94F7010C9456020C940000DF93CF938A
:10007000CDB7DEB781E490E02FE0FC012083CF9183
:10008000DF910895DF93CF9300D0CDB7DEB79A8389
:10009000898383E590E023E0FC0120831AC082E598
:1000A00090E023E8FC01208388E590E028E530E03B
:1000B000F90120812160FC012083A895000088E5DA
:1000C00090E0FC018081882F90E081709070009713
:1000D000B1F321E089819A81009709F420E08981B8
:1000E0009A8101979A8389832223C9F683E590E058
:1000F000FC0110820F900F90CF91DF910895DF9354
:10010000CF93CDB7DEB786E590E024EAFC012083EB
:10011000000086E590E0FC0180818823D4F781E22D
:1001200090E0FC018081882F90E0887F907088307B
:10013000910519F40E94F90006C081E290E0FC01EB
:1001400080810E944A01CF91DF910895DF93CF9380
:10015000CDB7DEB786E590E024EAFC0120830000FD
:1001600086E590E0FC0180818823D4F781E290E06D
:10017000FC018081882F90E0887F9070803191050C
:1001800019F40E94F90006C081E290E0FC01808130
:100190000E944A01CF91DF910895DF93CF93CDB7AD
:1001A000DEB783E290E02AE7FC01208386E590E059
:1001B00024E8FC012083000086E590E0FC018081BA
:1001C0008823D4F781E290E0FC018081882F90E0C1
:1001D000887F90708831910519F40E94F90006C05B
:1001E00081E290E0FC0180810E944A01CF91DF9181
:1001F0000895DF93CF93CDB7DEB788E390E028E38F
:1002000030E0F90120812160FC01208386E990E043
:100210000E94420088E390E028E330E0F901208169
:100220002E7FFC01208386E990E00E94420088E353
:1002300090E028E330E0F90120812160FC01208377
:1002400086E990E00E94420088E390E028E330E0F5
:10025000F90120812E7FFC01208386E990E00E9435
:10026000420088E390E028E330E0F901208121603A
:10027000FC01208386E990E00E94420088E390E040
:1002800028E330E0F90120812E7FFC012083CF910B
:10029000DF910895DF93CF9300D00F92CDB7DEB7F3
:1002A0008B8388E390E028E330E0F901208121602E
:1002B000FC0120838AEF90E00E94420088E390E0F6
:1002C00028E330E0F90120812E7FFC0120838AEFB2
:1002D00090E00E94420088E390E028E330E0F901DA
:1002E00020812160FC0120838AEF90E00E9442007F
:1002F00088E390E028E330E0F90120812E7FFC01C3
:10030000208388EE93E00E94420087E090E09A8389
:10031000898361C08B81882F90E0098002C0959508
:1003200087950A94E2F7817090708823D9F088E36A
:1003300090E028E330E0F90120812160FC01208376
:1003400086E990E00E94420088E390E028E330E0F4
:10035000F90120812E7FFC01208388EE93E00E942A
:10036000420034C088E390E028E330E0F9012081C6
:100370002160FC01208386E990E00E94420088E32E
:1003800090E028E330E0F90120812E7FFC012083FA
:1003900086E990E00E94420088E390E028E330E0A4
:1003A000F90120812160FC01208386E990E00E9410
:1003B000420088E390E028E330E0F90120812E7FBD
:1003C000FC01208388EE93E00E94420089819A819B
:1003D00001979A83898389819A81833091050CF0F2
:1003E00099CF0F900F900F90CF91DF910895DF93E9
:1003F000CF93CDB7DEB780E290E022E0FC0120830E
:1004000087E390E027E330E0F90120812160FC01DF
:10041000208388EE93E00E94420088E390E028E386
:1004200030E0F90120812160FC01208388EE93E017
:100430000E94420088E390E028E330E0F901208147
:100440002E7FFC01208380ED97E00E9442000E94F5
:100450007F0088EE93E00E9442000E94CD0001C020
:10046000000086E390E0FC018081882F90E084709A
:1004700090700097A9F784EF91E00E94420088E312
:1004800090E028E330E0F90120812160FC01208325
:1004900084EF91E00E94420088E390E028E330E09E
:1004A000F90120812E7FFC012083DBCFF894FFCF60
:00000001FF
